:100000000C942A000C941C090C9452090C94880935
:100010000C9447000C9447000C9447000C94470044
:100020000C9447000C9447000C9447000C94470034
:100030000C9447000C9447000C9447000C94470024
:100040000C9447000C9447000C9447000C94470014
:100050000C94470011241FBECFE5D8E0DEBFCDBF12
:1000600010E0A0E6B0E0E8E6F6E102C005900D92EF
:10007000AC36B107D9F710E0ACE6B0E001C01D9294
:10008000A237B107E1F70E94F30A0C94320B0C94EB
:100090000000DF93CF93CDB7DEB728970FB6F89463
:1000A000DEBF0FBECDBF8A836B834C8381E0898323
:1000B0008A81843008F0F1C08B81883008F0EDC06F
:1000C0008C81813009F06FC08A81282F30E0388719
:1000D0002F838F8198858130910549F12F81388553
:1000E000223031052CF48F819885009761F0D6C0BD
:1000F0002F8138852230310571F18F8198858330C9
:100100009105E9F1CBC0AAE3B0E0EAE3F0E0808139
:10011000482F8B81282F30E081E090E0022E02C032
:10012000880F991F0A94E2F7842B8C93B7C0A7E33A
:10013000B0E0E7E3F0E08081482F8B81282F30E0AA
:1001400081E090E0022E02C0880F991F0A94E2F726
:10015000842B8C93A3C0A4E3B0E0E4E3F0E08081BF
:10016000482F8B81282F30E081E090E0022E02C0E2
:10017000880F991F0A94E2F7842B8C938FC0A1E318
:10018000B0E0E1E3F0E08081482F8B81282F30E060
:1001900081E090E0022E02C0880F991F0A94E2F7D6
:1001A000842B8C937BC08C81882309F074C08A8156
:1001B000282F30E03E832D838D819E8181309105F3
:1001C00059F12D813E81223031052CF48D819E81A3
:1001D000009769F063C02D813E812230310589F19D
:1001E0008D819E818330910509F440C057C0AAE3F8
:1001F000B0E0EAE3F0E08081482F8B81282F30E0E7
:1002000081E090E0022E02C0880F991F0A94E2F765
:10021000809584238C9342C0A7E3B0E0E7E3F0E04D
:100220008081482F8B81282F30E081E090E0022EE2
:1002300002C0880F991F0A94E2F7809584238C935B
:100240002DC0A4E3B0E0E4E3F0E08081482F8B818F
:10025000282F30E081E090E0022E02C0880F991F25
:100260000A94E2F7809584238C9318C0A1E3B0E050
:10027000E1E3F0E08081482F8B81282F30E081E09E
:1002800090E0022E02C0880F991F0A94E2F7809531
:1002900084238C9303C0198201C019828981289616
:1002A0000FB6F894DEBF0FBECDBFCF91DF9108959A
:1002B000DF93CF93CDB7DEB728970FB6F894DEBFA4
:1002C0000FBECDBF8A836B834C8381E089838A8193
:1002D000843008F0F1C08B81883008F0EDC08C814B
:1002E000813009F06FC08A81282F30E038872F8352
:1002F0008F8198858130910549F12F813885223091
:1003000031052CF48F819885009761F0D6C02F813C
:1003100038852230310571F18F81988583309105C0
:10032000E9F1CBC0ABE3B0E0EBE3F0E08081482F34
:100330008B81282F30E081E090E0022E02C0880FF0
:10034000991F0A94E2F7842B8C93B7C0A8E3B0E01E
:10035000E8E3F0E08081482F8B81282F30E081E0B6
:1003600090E0022E02C0880F991F0A94E2F7842BB6
:100370008C93A3C0A5E3B0E0E5E3F0E08081482FD3
:100380008B81282F30E081E090E0022E02C0880FA0
:10039000991F0A94E2F7842B8C938FC0A2E3B0E0FC
:1003A000E2E3F0E08081482F8B81282F30E081E06C
:1003B00090E0022E02C0880F991F0A94E2F7842B66
:1003C0008C937BC08C81882309F074C08A81282F8C
:1003D00030E03E832D838D819E818130910559F1DE
:1003E0002D813E81223031052CF48D819E81009734
:1003F00069F063C02D813E812230310589F18D8104
:100400009E818330910509F440C057C0ABE3B0E052
:10041000EBE3F0E08081482F8B81282F30E081E0F2
:1004200090E0022E02C0880F991F0A94E2F780958F
:1004300084238C9342C0A8E3B0E0E8E3F0E080813D
:10044000482F8B81282F30E081E090E0022E02C0FF
:10045000880F991F0A94E2F7809584238C932DC00E
:10046000A5E3B0E0E5E3F0E08081482F8B81282F01
:1004700030E081E090E0022E02C0880F991F0A94BC
:10048000E2F7809584238C9318C0A2E3B0E0E2E306
:10049000F0E08081482F8B81282F30E081E090E0D0
:1004A000022E02C0880F991F0A94E2F780958423D8
:1004B0008C9303C0198201C01982898128960FB6D6
:1004C000F894DEBF0FBECDBFCF91DF910895DF93CB
:1004D000CF93CDB7DEB727970FB6F894DEBF0FBE28
:1004E000CDBF8A836B835D834C8381E089838A815E
:1004F000843008F0A6C08B81883008F0A2C08A81C1
:10050000282F30E03F832E834E815F81413051059B
:10051000C1F18E819F818230910534F42E813F811B
:100520002115310571F08EC04E815F814230510539
:1005300009F447C08E819F818330910509F461C021
:1005400081C0E9E3F0E08081482F50E08B81282FC3
:1005500030E081E090E002C0880F991F2A95E2F711
:100560009A01282339238B81882F90E0A90102C0AA
:10057000559547958A95E2F7CA01EC81FD81808304
:1005800061C0E6E3F0E08081482F50E08B81282FA6
:1005900030E081E090E002C0880F991F2A95E2F7D1
:1005A0009A01282339238B81882F90E0A90102C06A
:1005B000559547958A95E2F7CA01EC81FD818083C4
:1005C00041C0E3E3F0E08081482F50E08B81282F89
:1005D00030E081E090E002C0880F991F2A95E2F791
:1005E0009A01282339238B81882F90E0A90102C02A
:1005F000559547958A95E2F7CA01EC81FD81808384
:1006000021C0E0E3F0E08081482F50E08B81282F6B
:1006100030E081E090E002C0880F991F2A95E2F750
:100620009A01282339238B81882F90E0A90102C0E9
:10063000559547958A95E2F7CA01EC81FD81808343
:1006400001C01982898127960FB6F894DEBF0FBECC
:10065000CDBFCF91DF910895DF93CF9300D000D02D
:100660000F92CDB7DEB78A836B8381E089838B815C
:10067000883008F06FC08A81282F30E03D832C83BA
:100680008C819D818130910549F12C813D81223001
:1006900031052CF48C819D81009761F05CC02C8128
:1006A0003D812230310571F18C819D81833091052E
:1006B000E9F151C0ABE3B0E0EBE3F0E08081482F1B
:1006C0008B81282F30E081E090E0022E02C0880F5D
:1006D000991F0A94E2F784278C933DC0A8E3B0E009
:1006E000E8E3F0E08081482F8B81282F30E081E023
:1006F00090E0022E02C0880F991F0A94E2F7842727
:100700008C9329C0A5E3B0E0E5E3F0E08081482FB9
:100710008B81282F30E081E090E0022E02C0880F0C
:10072000991F0A94E2F784278C9315C0A2E3B0E0E6
:10073000E2E3F0E08081482F8B81282F30E081E0D8
:1007400090E0022E02C0880F991F0A94E2F78427D6
:100750008C9301C0198289810F900F900F900F9098
:100760000F90CF91DF910895DF93CF9300D000D009
:1007700000D0CDB7DEB78A836B834C8381E0898359
:100780008A81843008F03EC18B81883008F03AC1FC
:100790008A81282F30E03E832D838D819E81813098
:1007A000910509F45DC02D813E81223031052CF484
:1007B0008D819E81009771F026C12D813E8122306E
:1007C000310509F493C08D819E818330910509F430
:1007D000D3C019C18C81813071F5A0E5B0E0E0E5AE
:1007E000F0E080818B7F8C93AAE3B0E0EAE3F0E055
:1007F0008081482F8B81282F30E081E090E002C07B
:10080000880F991F2A95E2F7809584238C93ABE398
:10081000B0E0EBE3F0E08081482F8B81282F30E0BF
:1008200081E090E0022E02C0880F991F0A94E2F73F
:10083000842B8C93E8C0ABE3B0E0EBE3F0E0808185
:10084000482F8B81282F30E081E090E0022E02C0FB
:10085000880F991F0A94E2F7809584238C93D3C064
:100860008C81813071F5A0E5B0E0E0E5F0E08081B9
:100870008B7F8C93A7E3B0E0E7E3F0E08081482F23
:100880008B81282F30E081E090E002C0880F991F13
:100890002A95E2F7809584238C93A8E3B0E0E8E3FF
:1008A000F0E08081482F8B81282F30E081E090E0BC
:1008B000022E02C0880F991F0A94E2F7842B8C93B2
:1008C000A2C0A8E3B0E0E8E3F0E08081482F8B818C
:1008D000282F30E081E090E0022E02C0880F991F9F
:1008E0000A94E2F7809584238C938DC08C818130AB
:1008F00071F5A0E5B0E0E0E5F0E080818B7F8C93BE
:10090000A4E3B0E0E4E3F0E08081482F8B81282F5E
:1009100030E081E090E002C0880F991F2A95E2F74D
:10092000809584238C93A5E3B0E0E5E3F0E080813B
:10093000482F8B81282F30E081E090E0022E02C00A
:10094000880F991F0A94E2F7842B8C935CC0A5E36F
:10095000B0E0E5E3F0E08081482F8B81282F30E084
:1009600081E090E0022E02C0880F991F0A94E2F7FE
:10097000809584238C9347C08C81813071F5A0E5EC
:10098000B0E0E0E5F0E080818B7F8C93A1E3B0E004
:10099000E1E3F0E08081482F8B81282F30E081E077
:1009A00090E002C0880F991F2A95E2F78095842372
:1009B0008C93A2E3B0E0E2E3F0E08081482F8B81EA
:1009C000282F30E081E090E0022E02C0880F991FAE
:1009D0000A94E2F7842B8C9316C0A2E3B0E0E2E322
:1009E000F0E08081482F8B81282F30E081E090E07B
:1009F000022E02C0880F991F0A94E2F78095842383
:100A00008C9301C01982898126960FB6F894DEBFB7
:100A10000FBECDBFCF91DF910895DF93CF9300D06C
:100A200000D00F92CDB7DEB78A836B8381E08983D4
:100A30008A818430A8F58A81282F30E03D832C8379
:100A40008C819D8181309105D1F02C813D812230B6
:100A500031052CF48C819D81009761F01FC02C81A1
:100A60003D812230310581F08C819D81833091055B
:100A700081F014C0EAE3F0E08B81808312C0E7E3E9
:100A8000F0E08B8180830DC0E4E3F0E08B81808314
:100A900008C0E1E3F0E08B81808303C0198201C0CC
:100AA000198289810F900F900F900F900F90CF9126
:100AB000DF910895DF93CF9300D000D00F92CDB790
:100AC000DEB78A836B8381E089838A818430A8F5CD
:100AD0008A81282F30E03D832C838C819D81813059
:100AE0009105D1F02C813D81223031052CF48C818F
:100AF0009D81009761F01FC02C813D81223031051E
:100B000081F08C819D818330910581F014C0EBE3ED
:100B1000F0E08B81808312C0E8E3F0E08B8180837A
:100B20000DC0E5E3F0E08B81808308C0E2E3F0E0F4
:100B30008B81808303C0198201C0198289810F9043
:100B40000F900F900F900F90CF91DF910895DF934A
:100B5000CF9300D000D0CDB7DEB78A8381E0898300
:100B60008A81843008F03FC08A81282F30E03C839E
:100B70002B838B819C8181309105E9F02B813C8115
:100B8000223031052CF48B819C81009761F02CC0C0
:100B90002B813C8122303105B1F08B819C818330E7
:100BA0009105C9F021C0ABE3B0E0EBE3F0E0808158
:100BB00080958C9319C0A8E3B0E0E8E3F0E0808171
:100BC00080958C9311C0A5E3B0E0E5E3F0E080816F
:100BD00080958C9309C0A2E3B0E0E2E3F0E080816D
:100BE00080958C9301C0198289810F900F900F908E
:100BF0000F90CF91DF910895DF93CF9300D000D075
:100C000000D0CDB7DEB78A837C836B8381E0898394
:100C10008A818430E8F58A81282F30E03E832D8355
:100C20008D819E8181309105E1F02D813E812230C0
:100C300031052CF48D819E81009761F027C02D81B4
:100C40003E8122303105A1F08D819E818330910556
:100C5000B1F01CC0E9E3F0E08081EB81FC8180838E
:100C600018C0E6E3F0E08081EB81FC81808311C055
:100C7000E3E3F0E08081EB81FC8180830AC0E0E364
:100C8000F0E08081EB81FC81808303C0198201C088
:100C90001982898126960FB6F894DEBF0FBECDBFAC
:100CA000CF91DF910895DF93CF9300D000D00F92C2
:100CB000CDB7DEB78A836B8381E089838A818430F4
:100CC00008F063C08B818295807F8B838A81282F77
:100CD00030E03D832C838C819D818130910529F109
:100CE0002C813D81223031052CF48C819D8100972F
:100CF00061F04CC02C813D812230310531F18C8175
:100D00009D818330910589F141C0ABE3B0E0EBE315
:100D1000F0E080818F708C93ABE3B0E0EBE3F0E028
:100D200090818B81892B8C9331C0A8E3B0E0E8E3FC
:100D3000F0E080818F708C93A8E3B0E0E8E3F0E00E
:100D400090818B81892B8C9321C0A5E3B0E0E5E3F2
:100D5000F0E080818F708C93A5E3B0E0E5E3F0E0F4
:100D600090818B81892B8C9311C0A2E3B0E0E2E3E8
:100D7000F0E080818F708C93A2E3B0E0E2E3F0E0DA
:100D800090818B81892B8C9301C0198289810F906E
:100D90000F900F900F900F90CF91DF910895DF93F8
:100DA000CF9300D000D00F92CDB7DEB78A836B838C
:100DB00081E089838A81843008F062C08B818F70E2
:100DC0008B838A81282F30E03D832C838C819D8109
:100DD0008130910529F12C813D81223031052CF49F
:100DE0008C819D81009761F04CC02C813D81223027
:100DF000310531F18C819D818330910589F141C0AC
:100E0000ABE3B0E0EBE3F0E08081807F8C93ABE379
:100E1000B0E0EBE3F0E090818B81892B8C9331C0C3
:100E2000A8E3B0E0E8E3F0E08081807F8C93A8E362
:100E3000B0E0E8E3F0E090818B81892B8C9321C0B6
:100E4000A5E3B0E0E5E3F0E08081807F8C93A5E34B
:100E5000B0E0E5E3F0E090818B81892B8C9311C0A9
:100E6000A2E3B0E0E2E3F0E08081807F8C93A2E334
:100E7000B0E0E2E3F0E090818B81892B8C9301C09C
:100E8000198289810F900F900F900F900F90CF9142
:100E9000DF910895DF93CF93CDB7DEB7A5E5B0E03E
:100EA000E5E5F0E080818E7F8C93A5E5B0E0E5E597
:100EB000F0E0808182608C93CF91DF910895DF9381
:100EC000CF9300D000D000D0CDB7DEB789836A833E
:100ED0008A81863008F4D4C08A81883008F0D0C076
:100EE0008A81882F90E00697880F991F8A838981CD
:100EF000282F30E03E832D838D819E8181309105A6
:100F000009F495C02D813E812230310534F48D8164
:100F10009E81009709F461C0D1C02D813E812230AD
:100F2000310531F08D819E818330910561F1C6C01C
:100F3000A5E5B0E0E5E5F0E08081482F8A81282F23
:100F400030E081E090E002C0880F991F2A95E2F717
:100F5000809584238C93A5E5B0E0E5E5F0E0808101
:100F6000482F8A81882F90E09C012F5F3F4F81E0BE
:100F700090E0022E02C0880F991F0A94E2F7809534
:100F800084238C939BC0A5E5B0E0E5E5F0E080818B
:100F9000482F8A81282F30E081E090E002C0880F3E
:100FA000991F2A95E2F7842B8C93A5E5B0E0E5E53F
:100FB000F0E08081482F8A81882F90E09C012F5F8C
:100FC0003F4F81E090E0022E02C0880F991F0A94E3
:100FD000E2F7809584238C9371C0A5E5B0E0E5E548
:100FE000F0E08081482F8A81282F30E081E090E076
:100FF00002C0880F991F2A95E2F7809584238C936D
:10100000A5E5B0E0E5E5F0E08081482F8A81882FF2
:1010100090E09C012F5F3F4F81E090E0022E02C0E4
:10102000880F991F0A94E2F7842B8C9347C0A5E59B
:10103000B0E0E5E5F0E08081482F8A81282F30E09C
:1010400081E090E002C0880F991F2A95E2F7842B77
:101050008C93A5E5B0E0E5E5F0E08081482F8A813A
:10106000882F90E09C012F5F3F4F81E090E0022E9F
:1010700002C0880F991F0A94E2F7842B8C931EC03C
:101080008981282F30E03C832B838B819C810097C2
:1010900031F02B813C812130310549F00FC0A4E5AE
:1010A000B0E0E4E5F0E080818F7B8C9307C0A4E59D
:1010B000B0E0E4E5F0E0808180648C9326960FB682
:1010C000F894DEBF0FBECDBFCF91DF910895DF93BF
:1010D000CF9300D0CDB7DEB78A8319828A8185305D
:1010E000C0F08A818830A8F4ABE5B0E0EBE5F0E031
:1010F0008081482F8A81282F30E081E090E0022E05
:1011000002C0880F991F0A94E2F7809584238C937C
:1011100002C081E0898389810F900F90CF91DF9188
:101120000895DF93CF9300D0CDB7DEB78A831982BD
:101130008A818530B8F08A818830A0F4ABE5B0E0D0
:10114000EBE5F0E08081482F8A81282F30E081E0B4
:1011500090E0022E02C0880F991F0A94E2F7842BB8
:101160008C9302C081E0898389810F900F90CF9189
:10117000DF910895DF93CF930F92CDB7DEB78983C8
:10118000AAE5B0E0EAE5F0E08081482F8981282FC8
:1011900030E081E090E0022E02C0880F991F0A948F
:1011A000E2F7842B8C930F90CF91DF910895DF931A
:1011B000CF930F92CDB7DEB78983EAE5F0E0808167
:1011C000482F50E08981282F30E081E090E002C074
:1011D000880F991F2A95E2F79A01282339238981DC
:1011E000882F90E0A90102C0559547958A95E2F7AE
:1011F000CA010F90CF91DF910895DF93CF9300D074
:101200000F92CDB7DEB79A8389836B8389819A81E8
:10121000009761F08B81882F90E0880F991FFC0167
:10122000E459FF4F89819A81918380830F900F90B9
:101230000F90CF91DF9108951F920F920FB60F92EA
:1012400011242F933F934F935F936F937F938F93CB
:101250009F93AF93BF93EF93FF93DF93CF93CDB75C
:10126000DEB780916C0090916D00009741F0E091A5
:101270006C00F0916D00099586E00E94BA08CF914C
:10128000DF91FF91EF91BF91AF919F918F917F91EE
:101290006F915F914F913F912F910F900FBE0F90E3
:1012A0001F9018951F920F920FB60F9211242F9333
:1012B0003F934F935F936F937F938F939F93AF93DE
:1012C000BF93EF93FF93DF93CF93CDB7DEB78091BA
:1012D0006E0090916F00009741F0E0916E00F091E8
:1012E0006F00099587E00E94BA08CF91DF91FF91C6
:1012F000EF91BF91AF919F918F917F916F915F918E
:101300004F913F912F910F900FBE0F901F90189506
:101310001F920F920FB60F9211242F933F934F936A
:101320005F936F937F938F939F93AF93BF93EF934D
:10133000FF93DF93CF93CDB7DEB78091700090918C
:101340007100009741F0E0917000F09171000995F3
:1013500085E00E94BA08CF91DF91FF91EF91BF9194
:10136000AF919F918F917F916F915F914F913F913D
:101370002F910F900FBE0F901F901895DF93CF9372
:10138000CDB7DEB7AFE5B0E0EFE5F0E08081806893
:101390008C93CF91DF910895DF93CF93CDB7DEB7D4
:1013A000AFE5B0E0EFE5F0E080818F778C93CF91EF
:1013B000DF910895DF93CF9300D00F92CDB7DEB7C2
:1013C00069837A838B8389819A81692F41E00E94A6
:1013D00049000F900F900F90CF91DF910895DF9308
:1013E000CF9300D00F92CDB7DEB769837A838B831A
:1013F0008B81813039F489819A81692F41E00E9483
:10140000580109C08B81882331F489819A81692F21
:1014100040E00E9458010F900F900F90CF91DF9104
:101420000895DF93CF9300D00F92CDB7DEB76983D5
:101430007A838B838B81813039F489819A81692FFA
:1014400040E00E94580109C08B81882331F48981D2
:101450009A81692F41E00E9458010F900F900F90E0
:10146000CF91DF910895DF93CF9300D00F92CDB746
:10147000DEB769837A838B8389819A81692F0E9481
:101480002C030F900F900F90CF91DF910895DF9371
:10149000CF9300D00F92CDB7DEB769837A838B8369
:1014A00089819A81692F40E00E9449008B818823BD
:1014B00031F489819A81692F41E00E9458010F908F
:1014C0000F900F90CF91DF910895DF93CF9300D0CD
:1014D0000F92CDB7DEB769837A838B8389819A8136
:1014E000692F41E00E9458010F900F900F90CF910B
:1014F000DF910895DF93CF9300D00F92CDB7DEB781
:1015000069837A838B83A0E5B0E0E0E5F0E0808139
:1015100084608C930F900F900F90CF91DF9108957E
:10152000DF93CF9300D000D00F92CDB7DEB76B839F
:101530007C838D8319821A828D81882319F08D8195
:101540008130A1F48B819C819E012E5F3F4F692FDA
:10155000A9010E9467028A81882319F481E08983A6
:101560001BC08A818130C1F4198216C08D818230FE
:1015700099F48B819C819E012E5F3F4F692FA901B9
:101580000E9467028A81882311F4198205C08A812A
:10159000813011F481E0898389810F900F900F9041
:1015A0000F900F90CF91DF910895DF93CF93CDB738
:1015B000DEB76091600070916100809162000E94CE
:1015C000330ACF91DF910895DF93CF93CDB7DEB784
:1015D0006091660070916700809168000E94EF0939
:1015E000CF91DF910895DF93CF93CDB7DEB76091B0
:1015F000600070916100809162000E94DA09609140
:10160000660070916700809168000E94DA0960911D
:10161000630070916400809165000E94470A6091A8
:10162000690070916A0080916B000E94470A80E017
:1016300066E00E945F0780E067E00E945F0785ED3B
:101640009AE066E00E94FD0884EE9AE067E00E945E
:10165000FD0886E00E94910887E00E9491080E94A0
:08166000BE09FFCFF894FFCF93
:0C16680000000103020000010103030068
:00000001FF
