:100000000C942A000C9465070C9498070C94CB0769
:100010000C9447000C9447000C9447000C94470044
:100020000C9447000C9447000C9447000C94470034
:100030000C9447000C9447000C9447000C94470024
:100040000C9447000C9447000C9447000C94470014
:100050000C94470011241FBECFE5D8E0DEBFCDBF12
:1000600011E0A0E6B0E0E6E4F8E102C005900D92F0
:10007000AE37B107D9F711E0AEE7B1E001C01D928C
:10008000AB38B107E1F70E94690B0C94210C0C947A
:100090000000EF92FF920F931F937B018C0120E0F1
:1000A00030E040E05FE40E94FB0288238CF0C8014E
:1000B000B70120E030E040E05FE40E94C1010E940F
:1000C0005B039B01AC01205030404040504806C0CB
:1000D000C801B7010E945B039B01AC01B901CA01D1
:1000E0001F910F91FF90EF900895A0E0B0E0EBE733
:1000F000F0E00C946E0BDC012B01FA019C91923024
:1001000008F439C1EB018881823008F433C194309E
:1001100069F4843009F02FC111969C91119789815F
:10012000981709F428C1A0E6B0E025C1843009F48D
:1001300021C18230A9F4923009F01DC19A01AD01AC
:1001400088E0EA010990AE01E90109929E0181501F
:10015000C1F7E201898111969C918923818308C1AD
:10016000923009F407C112962D903C901397EB0141
:100170008A819B811496AD90BD90CD90DC901797AD
:10018000EC80FD800E811F819101281B390BB90184
:1001900037FF04C066277727621B730B6032710537
:1001A0000CF061C0121613066CF537014801062EDB
:1001B00004C096948794779467940A94D2F721E0C8
:1001C00030E040E050E004C0220F331F441F551FB1
:1001D0006A95D2F721503040404050402E213F21B7
:1001E00040235123211531054105510521F021E01E
:1001F00030E040E050E079018A01E628F72808293C
:1002000019293CC0232BD1F1260E371E350146019A
:10021000062E04C096948794779467940A94D2F734
:1002200021E030E040E050E004C0220F331F441FC3
:10023000551F6A95D2F721503040404050402A2146
:100240003B214C215D21211531054105510521F04E
:1002500021E030E040E050E059016A01A628B728CB
:10026000C828D9280BC0821593052CF01C01AA249C
:10027000BB24650103C0EE24FF24870111969C91E5
:10028000D20111968C91981709F445C0992339F041
:10029000A80197012A193B094C095D0906C0A6016E
:1002A00095012E193F09400B510B57FD08C01182D3
:1002B0003382228224833583468357831DC081E0A5
:1002C00081833382228288279927DC01821B930B4A
:1002D000A40BB50B84839583A683B7830DC0220F2F
:1002E000331F441F551F24833583468357838281E0
:1002F000938101979383828324813581468157813D
:10030000DA01C9010197A109B1098F5F9F4FAF4F72
:10031000BF4328F30BC0918333822282EA0CFB1C7B
:100320000C1D1D1DE482F5820683178383E0808304
:10033000248135814681578157FF1AC0C901AA27F8
:1003400097FDA095BA2F81709070A070B0705695EF
:10035000479537952795822B932BA42BB52B848318
:100360009583A683B7838281938101969383828349
:10037000DF0101C0D201CD01CDB7DEB7E2E10C94BF
:100380008A0BA0E2B0E0E7ECF1E00C947A0B698311
:100390007A838B839C832D833E834F835887E9E048
:1003A000EE2EF12CEC0EFD1ECE010196B7010E943F
:1003B0004C058E010F5E1F4FCE010596B8010E94BD
:1003C0004C058A8991E089278A8BC701B801AE0163
:1003D000475E5F4F0E9475000E947704A096E6E09A
:1003E0000C94960BA0E2B0E0E8EFF1E00C947A0BED
:1003F00069837A838B839C832D833E834F835887C5
:10040000F9E0EF2EF12CEC0EFD1ECE010196B701A6
:100410000E944C058E010F5E1F4FCE010596B8015C
:100420000E944C05C701B801AE01475E5F4F0E94B4
:1004300075000E947704A096E6E00C94960BA8E164
:10044000B0E0E5E2F2E00C94760B69837A838B836B
:100450009C832D833E834F835887B9E0EB2EF12C8C
:10046000EC0EFD1ECE010196B7010E944C058E01D7
:100470000F5E1F4FCE010596B8010E944C052985DD
:10048000223008F47EC03989323010F4B8017CC0C3
:100490008A859A8989278A87243011F0223031F49D
:1004A000231709F06EC060E670E06EC0343039F496
:1004B0001D861E861F86188A1C861B8604C0323045
:1004C00021F484E08987B7015FC02B853C858B8947
:1004D0009C89281B390B3C872B87ED84FE840F8574
:1004E0001889AD88BE88CF88D88CEA14FB040C0527
:1004F0001D0540F4EE0CFF1C001F111F2150304061
:100500003C872B8720E030E040E050E080E090E046
:10051000A0E0B0E460E070E0EA14FB040C051D0507
:1005200040F0282B392B4A2B5B2BEA18FB080C09CF
:100530001D09B695A79597958795EE0CFF1C001F92
:10054000111F6F5F7F4F6F31710531F7DA01C901FC
:100550008F779070A070B07080349105A105B105BF
:1005600061F427FD0AC0E114F1040105110529F029
:10057000205C3F4F4F4F5F4F20782D873E874F873E
:10058000588BBE01675F7F4FCB010E94770468964E
:10059000EAE00C94920BA8E1B0E0E1EDF2E00C94FB
:1005A0007A0B69837A838B839C832D833E834F836D
:1005B000588789E0E82EF12CEC0EFD1ECE01019645
:1005C000B7010E944C058E010F5E1F4FCE010596AC
:1005D000B8010E944C058985823040F089898230BB
:1005E00028F0C701B8010E94C40501C081E06896E7
:1005F000E6E00C94960BA8E1B0E0E1E0F3E00C94A7
:100600007A0B69837A838B839C832D833E834F830C
:10061000588789E0E82EF12CEC0EFD1ECE010196E4
:10062000B7010E944C058E010F5E1F4FCE0105964B
:10063000B8010E944C058985823040F0898982305A
:1006400028F0C701B8010E94C40501C08FEF689669
:10065000E6E00C94960BA8E1B0E0E1E3F3E00C9443
:100660007A0B69837A838B839C832D833E834F83AC
:10067000588789E0E82EF12CEC0EFD1ECE01019684
:10068000B7010E944C058E010F5E1F4FCE010596EB
:10069000B8010E944C058985823040F089898230FA
:1006A00028F0C701B8010E94C40501C081E0689626
:1006B000E6E00C94960BACE0B0E0E1E6F3E00C94DD
:1006C0007E0B69837A838B839C83CE010196BE0166
:1006D0006B5F7F4F0E944C058D81823061F18230CB
:1006E00050F1843021F48E81882351F12EC02F8166
:1006F000388537FD20C06E812F3131051CF066230F
:10070000F9F023C08EE190E0821B930B29853A8596
:100710004B855C8504C056954795379527958A95F6
:10072000D2F76623B1F050954095309521953F4F13
:100730004F4F5F4F0EC020E030E040E050E009C076
:100740002FEF3FEF4FEF5FE704C020E030E040E0E5
:1007500050E8B901CA012C96E2E00C949A0BA8E08B
:10076000B0E0E5EBF3E00C94760B7B018C016115B6
:1007700071058105910519F482E0898360C083E0E9
:1007800089838EE1C82ED12CDC82CB82ED82FE8261
:100790000F831887C801B7010E942804FC01319714
:1007A000F7FF3BC0222733272E1B3F0B5701680161
:1007B000022E04C0D694C794B794A7940A94D2F793
:1007C00040E050E060E070E081E090E0A0E0B0E068
:1007D00004C0880F991FAA1FBB1F2A95D2F7019743
:1007E000A109B1098E219F21A023B1230097A10562
:1007F000B10521F041E050E060E070E04A295B295A
:100800006C297D294D835E836F8378878EE190E02C
:100810008E1B9F0B9C838B8312C0309781F00E2E12
:1008200004C0EE0CFF1C001F111F0A94D2F7ED82CA
:10083000FE820F831887CE1ADF0ADC82CB821A82EF
:10084000CE0101960E9477042896EAE00C94920B60
:10085000EF92FF920F931F937B018C0180E0E816CB
:1008600080E0F80681E0080780E0180788F48FEF41
:10087000E816F1040105110531F028F088E090E058
:10088000A0E0B0E017C080E090E0A0E0B0E012C0CF
:1008900080E0E81680E0F80680E0080781E01807AD
:1008A00028F088E190E0A0E0B0E004C080E190E0B2
:1008B000A0E0B0E020E230E040E050E0281B390B3F
:1008C0004A0B5B0B04C016950795F794E7948A953D
:1008D000D2F7F701E859FF4F8081281B3109410900
:1008E0005109C9011F910F91FF90EF900895DF9278
:1008F000EF92FF920F931F93FC01E480F580068135
:100900001781D1808081823048F480E090E0A0E1BE
:10091000B0E0E82AF92A0A2B1B2BA5C0843009F481
:100920009FC0823021F4EE24FF24870105C0E1142A
:10093000F1040105110519F4E0E0F0E096C06281D0
:1009400073819FEF623879070CF05BC022E83FEFBC
:10095000261B370B2A3131052CF020E030E040E037
:1009600050E02AC0B801A701022E04C07695679511
:10097000579547950A94D2F781E090E0A0E0B0E067
:1009800004C0880F991FAA1FBB1F2A95D2F7019791
:10099000A109B1098E219F21A023B1230097A105B0
:1009A000B10521F081E090E0A0E0B0E09A01AB0158
:1009B000282B392B4A2B5B2BDA01C9018F779070DA
:1009C000A070B07080349105A105B10539F427FFFE
:1009D00009C0205C3F4F4F4F5F4F04C0215C3F4F29
:1009E0004F4F5F4FE0E0F0E02030A0E03A07A0E09A
:1009F0004A07A0E45A0710F0E1E0F0E079018A012B
:100A000027C06038710564F5FB01E158FF4FD8013C
:100A1000C7018F779070A070B07080349105A105E8
:100A2000B10539F4E7FE0DC080E490E0A0E0B0E04D
:100A300004C08FE390E0A0E0B0E0E80EF91E0A1FCA
:100A40001B1F17FF05C016950795F794E79431967D
:100A500087E016950795F794E7948A95D1F705C036
:100A6000EE24FF248701EFEFF0E06E2F67956627F5
:100A70006795902F9F77D794DD24D7948E2F8695F6
:100A8000492F462B582F5D29B701CA011F910F919D
:100A9000FF90EF90DF900895FC01DB0140815181D0
:100AA0002281622F6F7770E0221F2227221F9381FD
:100AB000892F880F822B282F30E0991F9927991FA3
:100AC00011969C93119721153105A9F541155105F2
:100AD0006105710511F482E037C082E89FEF13963B
:100AE0009C938E9312979A01AB0167E0220F331FFC
:100AF000441F551F6A95D1F783E08C930DC0220FD8
:100B0000331F441F551F12968D919C911397019787
:100B100013969C938E931297203080E0380780E0E4
:100B2000480780E4580758F314962D933D934D934E
:100B30005C93179708952F3F310579F441155105BE
:100B40006105710519F484E08C93089564FF03C076
:100B500081E08C9312C01C9210C02F573040139626
:100B60003C932E93129783E08C9387E0440F551F9C
:100B7000661F771F8A95D1F7706414964D935D9325
:100B80006D937C93179708951F93DC01FB019C9153
:100B9000923008F447C08081823008F443C094301A
:100BA00051F411961C91843099F58181682F70E081
:100BB000611B71093FC0843021F0923031F48230E2
:100BC000B9F18181882389F12DC011961C9111976B
:100BD0008230F1F081811817D9F412962D913C9151
:100BE0001397828193818217930794F0281739070E
:100BF000BCF014968D919D910D90BC91A02D2481F7
:100C0000358146815781281739074A075B0718F451
:100C1000112341F00AC082179307A407B50740F4D7
:100C2000112319F061E070E005C06FEF7FEF02C0A3
:100C300060E070E0CB011F91089583B78F7B83BF85
:100C400083B7877F83BF0895AF92BF92CF92DF9221
:100C5000EF92FF920F931F9323B72E7F23BF23B7EB
:100C60002D7F23BF23B7246023BF0E94AF037B01E6
:100C70008C0127E137EB41ED50E40E942B038823E0
:100C8000ACF467E177EB81ED90E4A80197010E9455
:100C9000C10127E137EB41ED5CE30E941F020E9496
:100CA000490062BF08B600FEFDCF0EC0C801B70103
:100CB00027E137EB41ED50E40E94CB02882341F459
:100CC00012BE08B600FEFDCF88B7816088BF41C064
:100CD000C801B70127E137EB41ED50E40E941F0244
:100CE0000E94A50B0E9449005B016C01C801B7017D
:100CF00027E137EB41ED5CE30E941F027B018C0191
:100D0000C601B5010E94AF039B01AC01C801B70148
:100D10000E941F029B01AC0160E070E080E893E458
:100D20000E94C1010E94490062BF20E030E040E023
:100D300050E00AC008B600FEFDCF88B7816088BFCA
:100D40002F5F3F4F4F4F5F4F2A153B054C055D0509
:100D500088F313BE1F910F91FF90EF90DF90CF901B
:100D6000BF90AF9008958FE38ABB17BA14BA11BA37
:100D70001BBA18BA15BA84E082BB08958FB7806891
:100D80008FBF08958FB78F778FBF089585B7826023
:100D900085BF85B78E7F85BF8BB780648BBF089575
:100DA00085B7886085BF85B78B7F85BF8BB7806827
:100DB0008BBF089584B78F7B84BF8BB780628BBF56
:100DC0000895653001F5823079F0833020F4813068
:100DD00009F049C006C0833051F0843009F043C0A7
:100DE0000CC085B78D7F05C085B78D7F08C085B7DE
:100DF000826085BF85B78E7F19C085B7826085BF49
:100E000085B7816013C06630F9F4823089F0833091
:100E100018F4813041F505C0833069F0843019F54C
:100E20000DC085B7877F85BF85B78B7F85BF19C00C
:100E300085B7877F05C085B78860F5CF85B788609F
:100E400085BF85B78460F2CF673069F4833019F0CD
:100E5000843049F403C084B78F7B02C084B78064B8
:100E600084BF81E0089582E00895893079F4663086
:100E700039F0673041F06530E1F48BB7806416C01B
:100E80008BB7806813C08BB7806210C08A3079F44A
:100E9000663039F0673041F0653059F48BB78F7B9D
:100EA00005C08BB78F7702C08BB78F7D8BBF81E07A
:100EB000089582E00895009711F483E008959093D7
:100EC0007F0180937E0181E008951F920F920FB6FB
:100ED0000F9211242F933F934F935F936F937F93C0
:100EE0008F939F93AF93BF93EF93FF93E0917E0116
:100EF000F0917F01309709F00995FF91EF91BF9133
:100F0000AF919F918F917F916F915F914F913F91A1
:100F10002F910F900FBE0F901F901895009711F40E
:100F200083E00895909381018093800181E008958A
:100F30001F920F920FB60F9211242F933F934F934E
:100F40005F936F937F938F939F93AF93BF93EF9331
:100F5000FF93E0918001F0918101309709F00995AC
:100F6000FF91EF91BF91AF919F918F917F916F9181
:100F70005F914F913F912F910F900FBE0F901F9057
:100F80001895009711F483E008959093830180935E
:100F9000820181E008951F920F920FB60F921124E3
:100FA0002F933F934F935F936F937F938F939F9371
:100FB000AF93BF93EF93FF93E0918201F091830190
:100FC000309709F00995FF91EF91BF91AF919F91F3
:100FD0008F917F916F915F914F913F912F910F90E2
:100FE0000FBE0F901F901895683008F074C044230E
:100FF000D1F58130A1F0813030F08230E1F08330E2
:1010000009F069C024C02AB381E090E002C0880FD3
:10101000991F6A95E2F7809582238ABB5AC027B34D
:1010200081E090E002C0880F991F6A95E2F78095F1
:10103000822387BB4EC024B381E090E002C0880FBA
:10104000991F6A95E2F78095822384BB42C021B341
:1010500081E090E002C0880F991F6A95E2F78095C1
:10106000822381BB36C04130B1F5813091F08130AF
:1010700028F08230C9F0833071F521C02AB381E0B5
:1010800090E002C0880F991F6A95E2F7282B2ABBCF
:1010900020C027B381E090E002C0880F991F6A95B5
:1010A000E2F7282B27BB15C024B381E090E002C0F3
:1010B000880F991F6A95E2F7282B24BB0AC021B339
:1010C00081E090E002C0880F991F6A95E2F7282B13
:1010D00021BB80E0089581E00895813051F0813096
:1010E00030F0823041F0833049F081E008956ABBEE
:1010F00003C067BB01C064BB80E0089561BB80E0B2
:101100000895683008F074C04423D1F58130A1F00F
:10111000813030F08230E1F0833009F069C024C0C2
:101120002BB381E090E002C0880F991F6A95E2F727
:10113000809582238BBB5AC028B381E090E002C027
:10114000880F991F6A95E2F78095822388BB4EC06D
:1011500025B381E090E002C0880F991F6A95E2F7FD
:101160008095822385BB42C022B381E090E002C01B
:10117000880F991F6A95E2F78095822382BB36C05B
:101180004130B1F5813091F0813028F08230C9F0E2
:10119000833071F521C02BB381E090E002C0880F4D
:1011A000991F6A95E2F7282B2BBB20C028B381E05A
:1011B00090E002C0880F991F6A95E2F7282B28BBA0
:1011C00015C025B381E090E002C0880F991F6A9591
:1011D000E2F7282B25BB0AC022B381E090E002C0D1
:1011E000880F991F6A95E2F7282B22BB80E00895AB
:1011F00081E00895813051F0813030F0823041F04B
:10120000833049F081E008956BBB03C068BB01C027
:1012100065BB80E0089562BB80E00895FA01411546
:101220005105E1F06830D0F4813049F0813028F088
:10123000823039F0833091F406C089B305C086B39B
:1012400003C083B301C080B390E002C09595879539
:101250006A95E2F78170808380E0089581E00895C7
:10126000DF93CF9300D000D0CDB7DEB7262F6A83AF
:101270007B838C83672F1982823058F4822FAE01D2
:101280004F5F5F4F0E940E0990E08981882391F49F
:101290000EC0823071F4822FAE014F5F5F4F0E940B
:1012A0000E098981882329F090E0813019F491E0BA
:1012B00001C090E0892F0F900F900F900F90CF9169
:1012C000DF9108950F931F93DF93CF9300D00F9278
:1012D000CDB7DEB769837A838B83062F172F862FCE
:1012E000672F40E00E94F4078B81882329F4802F28
:1012F000612F41E00E9481080F900F900F90CF91D5
:10130000DF911F910F910895DF93CF9300D00F923B
:10131000CDB7DEB7262F69837A838B83672F882327
:1013200039F0813011F081E008C0822F40E002C026
:10133000822F41E00E94810880E00F900F900F9073
:10134000CF91DF910895DF93CF9300D00F92CDB767
:10135000DEB7262F69837A838B83672F882339F042
:10136000813011F081E008C0822F41E002C0822F5D
:1013700040E00E94810880E00F900F900F90CF9185
:10138000DF910895EF92FF920F931F93DF93CF9316
:1013900000D000D0CDB7DEB7962F6A83672F7B834E
:1013A0008C8379018A01892FAE014F5F5F4F0E94C4
:1013B0000E098C81882399F0813011F081E022C0E0
:1013C0006A817B8181E00E94A309C801B7010E9464
:1013D00024066A817B818C810E9484090EC06A8107
:1013E0007B8180E00E948409C801B7010E94240625
:1013F0006A817B818C810E94A309C801B7010E9488
:10140000240680E00F900F900F900F90CF91DF9106
:101410001F910F91FF90EF9008951F9360916801C5
:101420007091690180916A010E94840910E06091C5
:10143000770170917801809179010E94A3096091F0
:101440006E0170916F01809170010E94A30964EF99
:1014500071E080E090E00E94240660917701709135
:101460007801809179010E94840960916E017091E8
:101470006F01809170010E94840964EF71E080E047
:1014800090E00E9424061F5F1A3089F66091770170
:1014900070917801809179010E94840960916E01B8
:1014A00070916F01809170010E94840960917401B4
:1014B00070917501809176010E948409609171019B
:1014C00070917201809173010E94A30960916B0178
:1014D00070916C0180916D010E94A3091F91089584
:1014E0001F9380918401813009F44FC08091850160
:1014F000813009F062C06091710170917201809138
:1015000073010E9484091092870110E060917701B5
:1015100070917801809179010E94A30960916E0118
:1015200070916F01809170010E94A30964EF71E0D6
:1015300080E090E00E94240660917701709178012C
:10154000809179010E94840960916E0170916F0110
:10155000809170010E94840964EF71E080E090E066
:101560000E9424061F5F1A3089F6609177017091FE
:101570007801809179010E94840960916E017091D7
:101580006F01809170010E948409609174017091D3
:101590007501809176010E94A309609168017091A4
:1015A000690180916A010E94A30968E873E180E003
:1015B00090E00E9424060E940D0A10928A011F9159
:1015C00008951F9380918A01882321F0813009F0CA
:1015D0005DC05AC060917101709172018091730178
:1015E0000E94A30911E01093870160916801709136
:1015F000690180916A010E94A3091093840168E83F
:1016000073E180E090E00E9424066091680170918F
:10161000690180916A010E9484091092840160919D
:101620006B0170916C0180916D010E94A309109370
:10163000850168E873E180E090E00E9424066091F3
:101640006B0170916C0180916D010E948409109270
:10165000850160916E0170916F01809170010E940F
:10166000A3091093860168E873E180E090E00E948E
:10167000240660916E0170916F01809170010E944B
:1016800084091092860102C00E94700A1F91089579
:1016900081E080938A010E94E10A08950E94B306C6
:1016A0000E941D0683E065E00E94E10689E065E096
:1016B0000E94350788E49BE00E945B070E94BE06FB
:1016C00060917A0170917B0180917C010E94620996
:1016D00008950E944E0B0E94E10AFDCF2F923F9287
:1016E0004F925F926F927F928F929F92AF92BF9232
:1016F000CF92DF92EF92FF920F931F93CF93DF93DE
:10170000CDB7DEB7CA1BDB0B0FB6F894DEBF0FBE3A
:10171000CDBF09942A88398848885F846E847D8487
:101720008C849B84AA84B984C884DF80EE80FD8089
:101730000C811B81AA81B981CE0FD11D0FB6F894FF
:10174000DEBF0FBECDBFED0108953BD080F09F37C7
:1017500040F491110EF44DC060E070E080E89FE32A
:10176000089526F01B16611D711D811D01C01BC04F
:10177000882371F4772321F09850872B762F07C0A8
:10178000662311F499270DC09051862B70E060E01C
:101790002AF09A95660F771F881FDAF7880F9695BB
:1017A000879597F908959F3F31F0915020F48795E0
:1017B00077956795B795880F911D9695879597F9B9
:1017C000089525D0A0F0BEE7B91788F4BB279F384D
:1017D00060F41616B11D672F782F8827985FF7CF12
:1017E000869577956795B11D93959639C8F30895B9
:1017F000E894BB2766277727CB0197F9089557FD13
:101800009058440F551F59F05F3F71F04795880F6E
:1018100097FB991F61F09F3F79F087950895121605
:1018200013061406551FF2CF4695F1DF08C01616B1
:1018300017061806991FF1CF869571056105089462
:061840000895F894FFCFAB
:101846000000000000000000000102020303030381
:10185600040404040404040405050505050505053A
:10186600050505050505050506060606060606061A
:101876000606060606060606060606060606060602
:1018860006060606060606060707070707070707EA
:1018960007070707070707070707070707070707D2
:1018A60007070707070707070707070707070707C2
:1018B60007070707070707070707070707070707B2
:1018C600070707070707070708080808080808089A
:1018D6000808080808080808080808080808080882
:1018E6000808080808080808080808080808080872
:1018F6000808080808080808080808080808080862
:101906000808080808080808080808080808080851
:101916000808080808080808080808080808080841
:101926000808080808080808080808080808080831
:101936000808080808080808080808080808080821
:10194600080808080808080800000100010100024C
:0E19560001000301000401000501030200006E
:00000001FF
